{
  "_format": "hh-sol-artifact-1",
  "contractName": "Strategy",
  "sourceName": "src/Strategy.sol",
  "abi": [
    {
      "inputs": [
        {
          "internalType": "address",
          "name": "_vault",
          "type": "address"
        },
        {
          "internalType": "address",
          "name": "_want",
          "type": "address"
        },
        {
          "internalType": "address",
          "name": "_loanToken",
          "type": "address"
        },
        {
          "internalType": "address",
          "name": "_lendingPool",
          "type": "address"
        },
        {
          "internalType": "address",
          "name": "_dataProvider",
          "type": "address"
        },
        {
          "internalType": "address",
          "name": "_aaveIncentives",
          "type": "address"
        },
        {
          "internalType": "address",
          "name": "_priceOracle",
          "type": "address"
        },
        {
          "internalType": "address",
          "name": "_reaperVault",
          "type": "address"
        }
      ],
      "stateMutability": "nonpayable",
      "type": "constructor"
    },
    {
      "inputs": [
        {
          "internalType": "address",
          "name": "target",
          "type": "address"
        }
      ],
      "name": "AddressEmptyCode",
      "type": "error"
    },
    {
      "inputs": [
        {
          "internalType": "address",
          "name": "account",
          "type": "address"
        }
      ],
      "name": "AddressInsufficientBalance",
      "type": "error"
    },
    {
      "inputs": [],
      "name": "DepositFailed",
      "type": "error"
    },
    {
      "inputs": [],
      "name": "FailedInnerCall",
      "type": "error"
    },
    {
      "inputs": [],
      "name": "InvalidAToken",
      "type": "error"
    },
    {
      "inputs": [],
      "name": "InvalidAmount",
      "type": "error"
    },
    {
      "inputs": [],
      "name": "NotAVault",
      "type": "error"
    },
    {
      "inputs": [
        {
          "internalType": "address",
          "name": "owner",
          "type": "address"
        }
      ],
      "name": "OwnableInvalidOwner",
      "type": "error"
    },
    {
      "inputs": [
        {
          "internalType": "address",
          "name": "account",
          "type": "address"
        }
      ],
      "name": "OwnableUnauthorizedAccount",
      "type": "error"
    },
    {
      "inputs": [
        {
          "internalType": "address",
          "name": "token",
          "type": "address"
        }
      ],
      "name": "SafeERC20FailedOperation",
      "type": "error"
    },
    {
      "anonymous": false,
      "inputs": [
        {
          "indexed": true,
          "internalType": "address",
          "name": "previousOwner",
          "type": "address"
        },
        {
          "indexed": true,
          "internalType": "address",
          "name": "newOwner",
          "type": "address"
        }
      ],
      "name": "OwnershipTransferred",
      "type": "event"
    },
    {
      "inputs": [],
      "name": "LIQUIDATION_TRESHOLD",
      "outputs": [
        {
          "internalType": "uint256",
          "name": "",
          "type": "uint256"
        }
      ],
      "stateMutability": "view",
      "type": "function"
    },
    {
      "inputs": [],
      "name": "PRECISION",
      "outputs": [
        {
          "internalType": "uint256",
          "name": "",
          "type": "uint256"
        }
      ],
      "stateMutability": "view",
      "type": "function"
    },
    {
      "inputs": [],
      "name": "aToken",
      "outputs": [
        {
          "internalType": "address",
          "name": "",
          "type": "address"
        }
      ],
      "stateMutability": "view",
      "type": "function"
    },
    {
      "inputs": [],
      "name": "aaveIncentives",
      "outputs": [
        {
          "internalType": "address",
          "name": "",
          "type": "address"
        }
      ],
      "stateMutability": "view",
      "type": "function"
    },
    {
      "inputs": [],
      "name": "adjustPosition",
      "outputs": [],
      "stateMutability": "nonpayable",
      "type": "function"
    },
    {
      "inputs": [],
      "name": "balanceOf",
      "outputs": [
        {
          "internalType": "uint256",
          "name": "",
          "type": "uint256"
        }
      ],
      "stateMutability": "view",
      "type": "function"
    },
    {
      "inputs": [],
      "name": "dataProvider",
      "outputs": [
        {
          "internalType": "address",
          "name": "",
          "type": "address"
        }
      ],
      "stateMutability": "view",
      "type": "function"
    },
    {
      "inputs": [],
      "name": "deposit",
      "outputs": [],
      "stateMutability": "nonpayable",
      "type": "function"
    },
    {
      "inputs": [],
      "name": "lendingPool",
      "outputs": [
        {
          "internalType": "address",
          "name": "",
          "type": "address"
        }
      ],
      "stateMutability": "view",
      "type": "function"
    },
    {
      "inputs": [],
      "name": "loanToken",
      "outputs": [
        {
          "internalType": "address",
          "name": "",
          "type": "address"
        }
      ],
      "stateMutability": "view",
      "type": "function"
    },
    {
      "inputs": [],
      "name": "owner",
      "outputs": [
        {
          "internalType": "address",
          "name": "",
          "type": "address"
        }
      ],
      "stateMutability": "view",
      "type": "function"
    },
    {
      "inputs": [],
      "name": "priceOracle",
      "outputs": [
        {
          "internalType": "address",
          "name": "",
          "type": "address"
        }
      ],
      "stateMutability": "view",
      "type": "function"
    },
    {
      "inputs": [],
      "name": "reaperVault",
      "outputs": [
        {
          "internalType": "address",
          "name": "",
          "type": "address"
        }
      ],
      "stateMutability": "view",
      "type": "function"
    },
    {
      "inputs": [],
      "name": "renounceOwnership",
      "outputs": [],
      "stateMutability": "nonpayable",
      "type": "function"
    },
    {
      "inputs": [
        {
          "internalType": "address",
          "name": "newOwner",
          "type": "address"
        }
      ],
      "name": "transferOwnership",
      "outputs": [],
      "stateMutability": "nonpayable",
      "type": "function"
    },
    {
      "inputs": [],
      "name": "vault",
      "outputs": [
        {
          "internalType": "address",
          "name": "",
          "type": "address"
        }
      ],
      "stateMutability": "view",
      "type": "function"
    },
    {
      "inputs": [],
      "name": "want",
      "outputs": [
        {
          "internalType": "address",
          "name": "",
          "type": "address"
        }
      ],
      "stateMutability": "view",
      "type": "function"
    },
    {
      "inputs": [
        {
          "internalType": "uint256",
          "name": "_amount",
          "type": "uint256"
        }
      ],
      "name": "withdraw",
      "outputs": [],
      "stateMutability": "nonpayable",
      "type": "function"
    }
  ],
  "bytecode": "0x60806040526402540be400600a556714d1120d7b160000600b55612710600c556103e8600d556014600e553480156200003757600080fd5b50604051620036a7380380620036a783398181016040528101906200005d9190620005bc565b33600073ffffffffffffffffffffffffffffffffffffffff168173ffffffffffffffffffffffffffffffffffffffff1603620000d35760006040517f1e4fbdf7000000000000000000000000000000000000000000000000000000008152600401620000ca919062000696565b60405180910390fd5b620000e4816200048e60201b60201c565b5087600160006101000a81548173ffffffffffffffffffffffffffffffffffffffff021916908373ffffffffffffffffffffffffffffffffffffffff16021790555086600260006101000a81548173ffffffffffffffffffffffffffffffffffffffff021916908373ffffffffffffffffffffffffffffffffffffffff16021790555085600360006101000a81548173ffffffffffffffffffffffffffffffffffffffff021916908373ffffffffffffffffffffffffffffffffffffffff16021790555084600560006101000a81548173ffffffffffffffffffffffffffffffffffffffff021916908373ffffffffffffffffffffffffffffffffffffffff16021790555083600660006101000a81548173ffffffffffffffffffffffffffffffffffffffff021916908373ffffffffffffffffffffffffffffffffffffffff16021790555082600760006101000a81548173ffffffffffffffffffffffffffffffffffffffff021916908373ffffffffffffffffffffffffffffffffffffffff16021790555081600860006101000a81548173ffffffffffffffffffffffffffffffffffffffff021916908373ffffffffffffffffffffffffffffffffffffffff16021790555080600960006101000a81548173ffffffffffffffffffffffffffffffffffffffff021916908373ffffffffffffffffffffffffffffffffffffffff160217905550600660009054906101000a900473ffffffffffffffffffffffffffffffffffffffff1673ffffffffffffffffffffffffffffffffffffffff1663d2493b6c600260009054906101000a900473ffffffffffffffffffffffffffffffffffffffff166040518263ffffffff1660e01b81526004016200036c919062000696565b606060405180830381865afa1580156200038a573d6000803e3d6000fd5b505050506040513d601f19601f82011682018060405250810190620003b09190620006b3565b905050600460008291906101000a81548173ffffffffffffffffffffffffffffffffffffffff021916908373ffffffffffffffffffffffffffffffffffffffff16021790555050600073ffffffffffffffffffffffffffffffffffffffff16600460009054906101000a900473ffffffffffffffffffffffffffffffffffffffff1673ffffffffffffffffffffffffffffffffffffffff160362000480576040517fbf5bb46d00000000000000000000000000000000000000000000000000000000815260040160405180910390fd5b50505050505050506200070f565b60008060009054906101000a900473ffffffffffffffffffffffffffffffffffffffff169050816000806101000a81548173ffffffffffffffffffffffffffffffffffffffff021916908373ffffffffffffffffffffffffffffffffffffffff1602179055508173ffffffffffffffffffffffffffffffffffffffff168173ffffffffffffffffffffffffffffffffffffffff167f8be0079c531659141344cd1fd0a4f28419497f9722a3daafe3b4186f6b6457e060405160405180910390a35050565b600080fd5b600073ffffffffffffffffffffffffffffffffffffffff82169050919050565b6000620005848262000557565b9050919050565b620005968162000577565b8114620005a257600080fd5b50565b600081519050620005b6816200058b565b92915050565b600080600080600080600080610100898b031215620005e057620005df62000552565b5b6000620005f08b828c01620005a5565b9850506020620006038b828c01620005a5565b9750506040620006168b828c01620005a5565b9650506060620006298b828c01620005a5565b95505060806200063c8b828c01620005a5565b94505060a06200064f8b828c01620005a5565b93505060c0620006628b828c01620005a5565b92505060e0620006758b828c01620005a5565b9150509295985092959890939650565b620006908162000577565b82525050565b6000602082019050620006ad600083018462000685565b92915050565b600080600060608486031215620006cf57620006ce62000552565b5b6000620006df86828701620005a5565b9350506020620006f286828701620005a5565b92505060406200070586828701620005a5565b9150509250925092565b612f88806200071f6000396000f3fe608060405234801561001057600080fd5b50600436106101165760003560e01c8063a0c1f15e116100a2578063afdb23a011610071578063afdb23a014610277578063b334ed8614610295578063d0e30db0146102b3578063f2fde38b146102bd578063fbfa77cf146102d957610116565b8063a0c1f15e146101ff578063a59a99731461021d578063aa6acb6f1461023b578063aaf5eb681461025957610116565b80632e1a7d4d116100e95780632e1a7d4d1461019357806367f34f49146101af578063715018a6146101b9578063722713f7146101c35780638da5cb5b146101e157610116565b806306d378171461011b5780631d841e3f146101395780631f1fcd51146101575780632630c12f14610175575b600080fd5b6101236102f7565b604051610130919061251e565b60405180910390f35b61014161031d565b60405161014e919061251e565b60405180910390f35b61015f610343565b60405161016c919061251e565b60405180910390f35b61017d610369565b60405161018a919061251e565b60405180910390f35b6101ad60048036038101906101a89190612574565b61038f565b005b6101b76108aa565b005b6101c16108bc565b005b6101cb6108d0565b6040516101d891906125b0565b60405180910390f35b6101e9610903565b6040516101f6919061251e565b60405180910390f35b61020761092c565b604051610214919061251e565b60405180910390f35b610225610952565b604051610232919061251e565b60405180910390f35b610243610978565b60405161025091906125b0565b60405180910390f35b61026161097d565b60405161026e91906125b0565b60405180910390f35b61027f610982565b60405161028c919061251e565b60405180910390f35b61029d6109a8565b6040516102aa919061251e565b60405180910390f35b6102bb6109ce565b005b6102d760048036038101906102d291906125f7565b610a67565b005b6102e1610aed565b6040516102ee919061251e565b60405180910390f35b600360009054906101000a900473ffffffffffffffffffffffffffffffffffffffff1681565b600760009054906101000a900473ffffffffffffffffffffffffffffffffffffffff1681565b600260009054906101000a900473ffffffffffffffffffffffffffffffffffffffff1681565b600860009054906101000a900473ffffffffffffffffffffffffffffffffffffffff1681565b600160009054906101000a900473ffffffffffffffffffffffffffffffffffffffff1673ffffffffffffffffffffffffffffffffffffffff163373ffffffffffffffffffffffffffffffffffffffff1614610416576040517fd085b78d00000000000000000000000000000000000000000000000000000000815260040160405180910390fd5b60008103610450576040517f2c5211c600000000000000000000000000000000000000000000000000000000815260040160405180910390fd5b600061045a610b13565b90508181101561083757600061046f83610bb6565b905060008061049f600360009054906101000a900473ffffffffffffffffffffffffffffffffffffffff16610ea6565b9150506104e16040518060400160405280601181526020017f616d6f756e74496e4c6f616e546f6b656e00000000000000000000000000000081525084610f63565b8083111561074a57600081846104f79190612653565b90506105386040518060400160405280600481526020017f646966660000000000000000000000000000000000000000000000000000000081525082610f63565b600960009054906101000a900473ffffffffffffffffffffffffffffffffffffffff1673ffffffffffffffffffffffffffffffffffffffff1663c6e6f592826040518263ffffffff1660e01b815260040161059391906125b0565b602060405180830381865afa1580156105b0573d6000803e3d6000fd5b505050506040513d601f19601f820116820180604052508101906105d4919061269c565b92506106156040518060400160405280601081526020017f736861726573546f57697468647261770000000000000000000000000000000081525084610f63565b600061062082610fff565b90506106616040518060400160405280601481526020017f77616e74416d6f756e74546f576974686472617700000000000000000000000081525082610f63565b600061066c856112ef565b90506106ad6040518060400160405280600e81526020017f62616c4f664c6f616e546f6b656e00000000000000000000000000000000000081525082610f63565b6000600c54600e546106be85610bb6565b6106c891906126c9565b6106d2919061273a565b90506107136040518060400160405280602081526020017f616d6f756e744166746572536c697070616765436f6e73696465726174696f6e81525082610f63565b600061071e84610bb6565b836107299190612653565b9050610740818461073a9190612653565b856113a3565b505050505061082b565b6000610760858761075b9190612653565b610bb6565b9050600960009054906101000a900473ffffffffffffffffffffffffffffffffffffffff1673ffffffffffffffffffffffffffffffffffffffff1663c6e6f592826040518263ffffffff1660e01b81526004016107bd91906125b0565b602060405180830381865afa1580156107da573d6000803e3d6000fd5b505050506040513d601f19601f820116820180604052508101906107fe919061269c565b9250600061080b846112ef565b90506000868861081b9190612653565b905061082782826113a3565b5050505b610833611610565b5050505b6108a6600160009054906101000a900473ffffffffffffffffffffffffffffffffffffffff1683600260009054906101000a900473ffffffffffffffffffffffffffffffffffffffff1673ffffffffffffffffffffffffffffffffffffffff166116779092919063ffffffff16565b5050565b6108b26116f6565b6108ba611610565b565b6108c46116f6565b6108ce600061177d565b565b60006108da611841565b6108e2611974565b6108ea610b13565b6108f4919061276b565b6108fe919061276b565b905090565b60008060009054906101000a900473ffffffffffffffffffffffffffffffffffffffff16905090565b600460009054906101000a900473ffffffffffffffffffffffffffffffffffffffff1681565b600560009054906101000a900473ffffffffffffffffffffffffffffffffffffffff1681565b603281565b606481565b600960009054906101000a900473ffffffffffffffffffffffffffffffffffffffff1681565b600660009054906101000a900473ffffffffffffffffffffffffffffffffffffffff1681565b600160009054906101000a900473ffffffffffffffffffffffffffffffffffffffff1673ffffffffffffffffffffffffffffffffffffffff163373ffffffffffffffffffffffffffffffffffffffff1614610a55576040517fd085b78d00000000000000000000000000000000000000000000000000000000815260040160405180910390fd5b610a5d6119bb565b610a65611c77565b565b610a6f6116f6565b600073ffffffffffffffffffffffffffffffffffffffff168173ffffffffffffffffffffffffffffffffffffffff1603610ae15760006040517f1e4fbdf7000000000000000000000000000000000000000000000000000000008152600401610ad8919061251e565b60405180910390fd5b610aea8161177d565b50565b600160009054906101000a900473ffffffffffffffffffffffffffffffffffffffff1681565b6000600260009054906101000a900473ffffffffffffffffffffffffffffffffffffffff1673ffffffffffffffffffffffffffffffffffffffff166370a08231306040518263ffffffff1660e01b8152600401610b70919061251e565b602060405180830381865afa158015610b8d573d6000803e3d6000fd5b505050506040513d601f19601f82011682018060405250810190610bb1919061269c565b905090565b600080610be4600260009054906101000a900473ffffffffffffffffffffffffffffffffffffffff16611ec5565b90506000610c13600360009054906101000a900473ffffffffffffffffffffffffffffffffffffffff16611ec5565b90506000600a54600860009054906101000a900473ffffffffffffffffffffffffffffffffffffffff1673ffffffffffffffffffffffffffffffffffffffff1663b3596f07600260009054906101000a900473ffffffffffffffffffffffffffffffffffffffff166040518263ffffffff1660e01b8152600401610c97919061251e565b602060405180830381865afa158015610cb4573d6000803e3d6000fd5b505050506040513d601f19601f82011682018060405250810190610cd8919061269c565b610ce291906126c9565b90506000600a54600860009054906101000a900473ffffffffffffffffffffffffffffffffffffffff1673ffffffffffffffffffffffffffffffffffffffff1663b3596f07600360009054906101000a900473ffffffffffffffffffffffffffffffffffffffff166040518263ffffffff1660e01b8152600401610d66919061251e565b602060405180830381865afa158015610d83573d6000803e3d6000fd5b505050506040513d601f19601f82011682018060405250810190610da7919061269c565b610db191906126c9565b90506000808514158015610dc55750600084145b15610df35783828489610dd891906126c9565b610de2919061273a565b610dec919061273a565b9050610e99565b600085148015610e04575060008414155b15610e325781838689610e1791906126c9565b610e2191906126c9565b610e2b919061273a565b9050610e98565b60008514158015610e44575060008414155b15610e7d57838284878a610e5891906126c9565b610e6291906126c9565b610e6c919061273a565b610e76919061273a565b9050610e97565b818388610e8a91906126c9565b610e94919061273a565b90505b5b5b8095505050505050919050565b600080600080600660009054906101000a900473ffffffffffffffffffffffffffffffffffffffff1673ffffffffffffffffffffffffffffffffffffffff166328dd2d0186306040518363ffffffff1660e01b8152600401610f0992919061279f565b61012060405180830381865afa158015610f27573d6000803e3d6000fd5b505050506040513d601f19601f82011682018060405250810190610f4b919061283d565b50505050505092505091508181935093505050915091565b610ffb8282604051602401610f79929190612997565b6040516020818303038152906040527fb60e72cc000000000000000000000000000000000000000000000000000000007bffffffffffffffffffffffffffffffffffffffffffffffffffffffff19166020820180517bffffffffffffffffffffffffffffffffffffffffffffffffffffffff8381831617835250505050611f63565b5050565b60008061102d600260009054906101000a900473ffffffffffffffffffffffffffffffffffffffff16611ec5565b9050600061105c600360009054906101000a900473ffffffffffffffffffffffffffffffffffffffff16611ec5565b90506000600a54600860009054906101000a900473ffffffffffffffffffffffffffffffffffffffff1673ffffffffffffffffffffffffffffffffffffffff1663b3596f07600260009054906101000a900473ffffffffffffffffffffffffffffffffffffffff166040518263ffffffff1660e01b81526004016110e0919061251e565b602060405180830381865afa1580156110fd573d6000803e3d6000fd5b505050506040513d601f19601f82011682018060405250810190611121919061269c565b61112b91906126c9565b90506000600a54600860009054906101000a900473ffffffffffffffffffffffffffffffffffffffff1673ffffffffffffffffffffffffffffffffffffffff1663b3596f07600360009054906101000a900473ffffffffffffffffffffffffffffffffffffffff166040518263ffffffff1660e01b81526004016111af919061251e565b602060405180830381865afa1580156111cc573d6000803e3d6000fd5b505050506040513d601f19601f820116820180604052508101906111f0919061269c565b6111fa91906126c9565b9050600080851415801561120e5750600084145b1561123c578483838961122191906126c9565b61122b919061273a565b611235919061273a565b90506112e2565b60008514801561124d575060008414155b1561127b578282858961126091906126c9565b61126a91906126c9565b611274919061273a565b90506112e1565b6000851415801561128d575060008414155b156112c657848383868a6112a191906126c9565b6112ab91906126c9565b6112b5919061273a565b6112bf919061273a565b90506112e0565b8282886112d391906126c9565b6112dd919061273a565b90505b5b5b8095505050505050919050565b6000600960009054906101000a900473ffffffffffffffffffffffffffffffffffffffff1673ffffffffffffffffffffffffffffffffffffffff1663b460af948330306040518463ffffffff1660e01b8152600401611350939291906129c7565b6020604051808303816000875af115801561136f573d6000803e3d6000fd5b505050506040513d601f19601f82011682018060405250810190611393919061269c565b5061139c611f7d565b9050919050565b600360009054906101000a900473ffffffffffffffffffffffffffffffffffffffff1673ffffffffffffffffffffffffffffffffffffffff1663095ea7b3600560009054906101000a900473ffffffffffffffffffffffffffffffffffffffff16846040518363ffffffff1660e01b81526004016114229291906129fe565b6020604051808303816000875af1158015611441573d6000803e3d6000fd5b505050506040513d601f19601f820116820180604052508101906114659190612a27565b50600560009054906101000a900473ffffffffffffffffffffffffffffffffffffffff1673ffffffffffffffffffffffffffffffffffffffff1663573ade81600360009054906101000a900473ffffffffffffffffffffffffffffffffffffffff16846002306040518563ffffffff1660e01b81526004016114ea9493929190612a99565b6020604051808303816000875af1158015611509573d6000803e3d6000fd5b505050506040513d601f19601f8201168201806040525081019061152d919061269c565b5081600f60008282546115409190612653565b92505081905550600560009054906101000a900473ffffffffffffffffffffffffffffffffffffffff1673ffffffffffffffffffffffffffffffffffffffff166369328dec600260009054906101000a900473ffffffffffffffffffffffffffffffffffffffff1683306040518463ffffffff1660e01b81526004016115c893929190612ade565b6020604051808303816000875af11580156115e7573d6000803e3d6000fd5b505050506040513d601f19601f8201168201806040525081019061160b919061269c565b505050565b60008061163e600260009054906101000a900473ffffffffffffffffffffffffffffffffffffffff16610ea6565b91509150600061164c612020565b905060008314801561165e5750600082145b5060008314158015611671575060008214155b50505050565b6116f1838473ffffffffffffffffffffffffffffffffffffffff1663a9059cbb85856040516024016116aa9291906129fe565b604051602081830303815290604052915060e01b6020820180517bffffffffffffffffffffffffffffffffffffffffffffffffffffffff83818316178352505050506120cd565b505050565b6116fe612164565b73ffffffffffffffffffffffffffffffffffffffff1661171c610903565b73ffffffffffffffffffffffffffffffffffffffff161461177b5761173f612164565b6040517f118cdaa7000000000000000000000000000000000000000000000000000000008152600401611772919061251e565b60405180910390fd5b565b60008060009054906101000a900473ffffffffffffffffffffffffffffffffffffffff169050816000806101000a81548173ffffffffffffffffffffffffffffffffffffffff021916908373ffffffffffffffffffffffffffffffffffffffff1602179055508173ffffffffffffffffffffffffffffffffffffffff168173ffffffffffffffffffffffffffffffffffffffff167f8be0079c531659141344cd1fd0a4f28419497f9722a3daafe3b4186f6b6457e060405160405180910390a35050565b60008061184c61216c565b9050600061185861228d565b905080821161186c57600092505050611971565b6000818361187a9190612653565b90506000600a54600860009054906101000a900473ffffffffffffffffffffffffffffffffffffffff1673ffffffffffffffffffffffffffffffffffffffff1663b3596f07600260009054906101000a900473ffffffffffffffffffffffffffffffffffffffff166040518263ffffffff1660e01b81526004016118fe919061251e565b602060405180830381865afa15801561191b573d6000803e3d6000fd5b505050506040513d601f19601f8201168201806040525081019061193f919061269c565b61194991906126c9565b905060008183611959919061273a565b9050600a5481611969919061273a565b955050505050505b90565b60008060006119a4600260009054906101000a900473ffffffffffffffffffffffffffffffffffffffff16610ea6565b9150915080826119b49190612653565b9250505090565b60006119c5610b13565b905060008114611c7457600260009054906101000a900473ffffffffffffffffffffffffffffffffffffffff1673ffffffffffffffffffffffffffffffffffffffff1663095ea7b3600560009054906101000a900473ffffffffffffffffffffffffffffffffffffffff16836040518363ffffffff1660e01b8152600401611a4e9291906129fe565b6020604051808303816000875af1158015611a6d573d6000803e3d6000fd5b505050506040513d601f19601f82011682018060405250810190611a919190612a27565b50600560009054906101000a900473ffffffffffffffffffffffffffffffffffffffff1673ffffffffffffffffffffffffffffffffffffffff1663e8eda9df600260009054906101000a900473ffffffffffffffffffffffffffffffffffffffff16833060006040518563ffffffff1660e01b8152600401611b169493929190612b5e565b600060405180830381600087803b158015611b3057600080fd5b505af1158015611b44573d6000803e3d6000fd5b505050506000611b53826122c5565b90506000611b5f611f7d565b9050600560009054906101000a900473ffffffffffffffffffffffffffffffffffffffff1673ffffffffffffffffffffffffffffffffffffffff1663a415bcad600360009054906101000a900473ffffffffffffffffffffffffffffffffffffffff168460026000306040518663ffffffff1660e01b8152600401611be8959493929190612ba3565b600060405180830381600087803b158015611c0257600080fd5b505af1158015611c16573d6000803e3d6000fd5b505050506000611c24611f7d565b905060008282611c349190612653565b905080600f6000828254611c48919061276b565b925050819055506000611c59612020565b9050600b54811015611c6e57611c6d611610565b5b50505050505b50565b6000600360009054906101000a900473ffffffffffffffffffffffffffffffffffffffff1673ffffffffffffffffffffffffffffffffffffffff166370a08231306040518263ffffffff1660e01b8152600401611cd4919061251e565b602060405180830381865afa158015611cf1573d6000803e3d6000fd5b505050506040513d601f19601f82011682018060405250810190611d15919061269c565b905060008114611ec257600360009054906101000a900473ffffffffffffffffffffffffffffffffffffffff1673ffffffffffffffffffffffffffffffffffffffff1663095ea7b3600960009054906101000a900473ffffffffffffffffffffffffffffffffffffffff16836040518363ffffffff1660e01b8152600401611d9e9291906129fe565b6020604051808303816000875af1158015611dbd573d6000803e3d6000fd5b505050506040513d601f19601f82011682018060405250810190611de19190612a27565b506000600960009054906101000a900473ffffffffffffffffffffffffffffffffffffffff1673ffffffffffffffffffffffffffffffffffffffff16636e553f6583306040518363ffffffff1660e01b8152600401611e41929190612bf6565b6020604051808303816000875af1158015611e60573d6000803e3d6000fd5b505050506040513d601f19601f82011682018060405250810190611e84919061269c565b905060008111611ec0576040517f79cacff100000000000000000000000000000000000000000000000000000000815260040160405180910390fd5b505b50565b6000808273ffffffffffffffffffffffffffffffffffffffff1663313ce5676040518163ffffffff1660e01b8152600401602060405180830381865afa158015611f13573d6000803e3d6000fd5b505050506040513d601f19601f82011682018060405250810190611f379190612c58565b6012611f439190612c85565b60ff169050600081600a611f579190612ded565b90508092505050919050565b611f7a81611f726122e8612311565b63ffffffff16565b50565b6000600360009054906101000a900473ffffffffffffffffffffffffffffffffffffffff1673ffffffffffffffffffffffffffffffffffffffff166370a08231306040518263ffffffff1660e01b8152600401611fda919061251e565b602060405180830381865afa158015611ff7573d6000803e3d6000fd5b505050506040513d601f19601f8201168201806040525081019061201b919061269c565b905090565b600080600560009054906101000a900473ffffffffffffffffffffffffffffffffffffffff1673ffffffffffffffffffffffffffffffffffffffff1663bf92857c306040518263ffffffff1660e01b815260040161207e919061251e565b60c060405180830381865afa15801561209b573d6000803e3d6000fd5b505050506040513d601f19601f820116820180604052508101906120bf9190612e38565b955050505050508091505090565b60006120f8828473ffffffffffffffffffffffffffffffffffffffff1661231c90919063ffffffff16565b9050600081511415801561211d57508080602001905181019061211b9190612a27565b155b1561215f57826040517f5274afe7000000000000000000000000000000000000000000000000000000008152600401612156919061251e565b60405180910390fd5b505050565b600033905090565b600080600960009054906101000a900473ffffffffffffffffffffffffffffffffffffffff1690508073ffffffffffffffffffffffffffffffffffffffff166307a2d13a8273ffffffffffffffffffffffffffffffffffffffff166370a08231306040518263ffffffff1660e01b81526004016121e9919061251e565b602060405180830381865afa158015612206573d6000803e3d6000fd5b505050506040513d601f19601f8201168201806040525081019061222a919061269c565b6040518263ffffffff1660e01b815260040161224691906125b0565b602060405180830381865afa158015612263573d6000803e3d6000fd5b505050506040513d601f19601f82011682018060405250810190612287919061269c565b91505090565b6000806122bb600360009054906101000a900473ffffffffffffffffffffffffffffffffffffffff16610ea6565b9150508091505090565b6000806122d183610bb6565b90506002816122e0919061273a565b915050919050565b60008151905060006a636f6e736f6c652e6c6f679050602083016000808483855afa5050505050565b6124d3819050919050565b606061232a83836000612332565b905092915050565b60608147101561237957306040517fcd786059000000000000000000000000000000000000000000000000000000008152600401612370919061251e565b60405180910390fd5b6000808573ffffffffffffffffffffffffffffffffffffffff1684866040516123a29190612f0c565b60006040518083038185875af1925050503d80600081146123df576040519150601f19603f3d011682016040523d82523d6000602084013e6123e4565b606091505b50915091506123f48683836123ff565b925050509392505050565b6060826124145761240f8261248e565b612486565b6000825114801561243c575060008473ffffffffffffffffffffffffffffffffffffffff163b145b1561247e57836040517f9996b315000000000000000000000000000000000000000000000000000000008152600401612475919061251e565b60405180910390fd5b819050612487565b5b9392505050565b6000815111156124a15780518082602001fd5b6040517f1425ea4200000000000000000000000000000000000000000000000000000000815260040160405180910390fd5b6124db612f23565b565b600073ffffffffffffffffffffffffffffffffffffffff82169050919050565b6000612508826124dd565b9050919050565b612518816124fd565b82525050565b6000602082019050612533600083018461250f565b92915050565b600080fd5b6000819050919050565b6125518161253e565b811461255c57600080fd5b50565b60008135905061256e81612548565b92915050565b60006020828403121561258a57612589612539565b5b60006125988482850161255f565b91505092915050565b6125aa8161253e565b82525050565b60006020820190506125c560008301846125a1565b92915050565b6125d4816124fd565b81146125df57600080fd5b50565b6000813590506125f1816125cb565b92915050565b60006020828403121561260d5761260c612539565b5b600061261b848285016125e2565b91505092915050565b7f4e487b7100000000000000000000000000000000000000000000000000000000600052601160045260246000fd5b600061265e8261253e565b91506126698361253e565b925082820390508181111561268157612680612624565b5b92915050565b60008151905061269681612548565b92915050565b6000602082840312156126b2576126b1612539565b5b60006126c084828501612687565b91505092915050565b60006126d48261253e565b91506126df8361253e565b92508282026126ed8161253e565b9150828204841483151761270457612703612624565b5b5092915050565b7f4e487b7100000000000000000000000000000000000000000000000000000000600052601260045260246000fd5b60006127458261253e565b91506127508361253e565b9250826127605761275f61270b565b5b828204905092915050565b60006127768261253e565b91506127818361253e565b925082820190508082111561279957612798612624565b5b92915050565b60006040820190506127b4600083018561250f565b6127c1602083018461250f565b9392505050565b600064ffffffffff82169050919050565b6127e2816127c8565b81146127ed57600080fd5b50565b6000815190506127ff816127d9565b92915050565b60008115159050919050565b61281a81612805565b811461282557600080fd5b50565b60008151905061283781612811565b92915050565b60008060008060008060008060006101208a8c0312156128605761285f612539565b5b600061286e8c828d01612687565b995050602061287f8c828d01612687565b98505060406128908c828d01612687565b97505060606128a18c828d01612687565b96505060806128b28c828d01612687565b95505060a06128c38c828d01612687565b94505060c06128d48c828d01612687565b93505060e06128e58c828d016127f0565b9250506101006128f78c828d01612828565b9150509295985092959850929598565b600081519050919050565b600082825260208201905092915050565b60005b83811015612941578082015181840152602081019050612926565b60008484015250505050565b6000601f19601f8301169050919050565b600061296982612907565b6129738185612912565b9350612983818560208601612923565b61298c8161294d565b840191505092915050565b600060408201905081810360008301526129b1818561295e565b90506129c060208301846125a1565b9392505050565b60006060820190506129dc60008301866125a1565b6129e9602083018561250f565b6129f6604083018461250f565b949350505050565b6000604082019050612a13600083018561250f565b612a2060208301846125a1565b9392505050565b600060208284031215612a3d57612a3c612539565b5b6000612a4b84828501612828565b91505092915050565b6000819050919050565b6000819050919050565b6000612a83612a7e612a7984612a54565b612a5e565b61253e565b9050919050565b612a9381612a68565b82525050565b6000608082019050612aae600083018761250f565b612abb60208301866125a1565b612ac86040830185612a8a565b612ad5606083018461250f565b95945050505050565b6000606082019050612af3600083018661250f565b612b0060208301856125a1565b612b0d604083018461250f565b949350505050565b6000819050919050565b600061ffff82169050919050565b6000612b48612b43612b3e84612b15565b612a5e565b612b1f565b9050919050565b612b5881612b2d565b82525050565b6000608082019050612b73600083018761250f565b612b8060208301866125a1565b612b8d604083018561250f565b612b9a6060830184612b4f565b95945050505050565b600060a082019050612bb8600083018861250f565b612bc560208301876125a1565b612bd26040830186612a8a565b612bdf6060830185612b4f565b612bec608083018461250f565b9695505050505050565b6000604082019050612c0b60008301856125a1565b612c18602083018461250f565b9392505050565b600060ff82169050919050565b612c3581612c1f565b8114612c4057600080fd5b50565b600081519050612c5281612c2c565b92915050565b600060208284031215612c6e57612c6d612539565b5b6000612c7c84828501612c43565b91505092915050565b6000612c9082612c1f565b9150612c9b83612c1f565b9250828203905060ff811115612cb457612cb3612624565b5b92915050565b60008160011c9050919050565b6000808291508390505b6001851115612d1157808604811115612ced57612cec612624565b5b6001851615612cfc5780820291505b8081029050612d0a85612cba565b9450612cd1565b94509492505050565b600082612d2a5760019050612de6565b81612d385760009050612de6565b8160018114612d4e5760028114612d5857612d87565b6001915050612de6565b60ff841115612d6a57612d69612624565b5b8360020a915084821115612d8157612d80612624565b5b50612de6565b5060208310610133831016604e8410600b8410161715612dbc5782820a905083811115612db757612db6612624565b5b612de6565b612dc98484846001612cc7565b92509050818404811115612de057612ddf612624565b5b81810290505b9392505050565b6000612df88261253e565b9150612e038361253e565b9250612e307fffffffffffffffffffffffffffffffffffffffffffffffffffffffffffffffff8484612d1a565b905092915050565b60008060008060008060c08789031215612e5557612e54612539565b5b6000612e6389828a01612687565b9650506020612e7489828a01612687565b9550506040612e8589828a01612687565b9450506060612e9689828a01612687565b9350506080612ea789828a01612687565b92505060a0612eb889828a01612687565b9150509295509295509295565b600081519050919050565b600081905092915050565b6000612ee682612ec5565b612ef08185612ed0565b9350612f00818560208601612923565b80840191505092915050565b6000612f188284612edb565b915081905092915050565b7f4e487b7100000000000000000000000000000000000000000000000000000000600052605160045260246000fdfea26469706673582212207e2c21fc4d9136152b71993bc1700ea186428da373bba7f1f48a51f5022cff5864736f6c63430008140033",
  "linkReferences": {},
  "deployedLinkReferences": {}
}