{
  "_format": "hh-sol-artifact-1",
  "contractName": "MaxiVault",
  "sourceName": "src/MaxiVault.sol",
  "abi": [
    {
      "inputs": [
        {
          "internalType": "address",
          "name": "_token",
          "type": "address"
        },
        {
          "internalType": "string",
          "name": "_name",
          "type": "string"
        },
        {
          "internalType": "string",
          "name": "_symbol",
          "type": "string"
        },
        {
          "internalType": "uint256",
          "name": "_depositFee",
          "type": "uint256"
        },
        {
          "internalType": "uint256",
          "name": "_tvlCap",
          "type": "uint256"
        }
      ],
      "stateMutability": "nonpayable",
      "type": "constructor"
    },
    {
      "inputs": [
        {
          "internalType": "address",
          "name": "target",
          "type": "address"
        }
      ],
      "name": "AddressEmptyCode",
      "type": "error"
    },
    {
      "inputs": [
        {
          "internalType": "address",
          "name": "account",
          "type": "address"
        }
      ],
      "name": "AddressInsufficientBalance",
      "type": "error"
    },
    {
      "inputs": [
        {
          "internalType": "address",
          "name": "spender",
          "type": "address"
        },
        {
          "internalType": "uint256",
          "name": "allowance",
          "type": "uint256"
        },
        {
          "internalType": "uint256",
          "name": "needed",
          "type": "uint256"
        }
      ],
      "name": "ERC20InsufficientAllowance",
      "type": "error"
    },
    {
      "inputs": [
        {
          "internalType": "address",
          "name": "sender",
          "type": "address"
        },
        {
          "internalType": "uint256",
          "name": "balance",
          "type": "uint256"
        },
        {
          "internalType": "uint256",
          "name": "needed",
          "type": "uint256"
        }
      ],
      "name": "ERC20InsufficientBalance",
      "type": "error"
    },
    {
      "inputs": [
        {
          "internalType": "address",
          "name": "approver",
          "type": "address"
        }
      ],
      "name": "ERC20InvalidApprover",
      "type": "error"
    },
    {
      "inputs": [
        {
          "internalType": "address",
          "name": "receiver",
          "type": "address"
        }
      ],
      "name": "ERC20InvalidReceiver",
      "type": "error"
    },
    {
      "inputs": [
        {
          "internalType": "address",
          "name": "sender",
          "type": "address"
        }
      ],
      "name": "ERC20InvalidSender",
      "type": "error"
    },
    {
      "inputs": [
        {
          "internalType": "address",
          "name": "spender",
          "type": "address"
        }
      ],
      "name": "ERC20InvalidSpender",
      "type": "error"
    },
    {
      "inputs": [],
      "name": "FailedInnerCall",
      "type": "error"
    },
    {
      "inputs": [
        {
          "internalType": "address",
          "name": "owner",
          "type": "address"
        }
      ],
      "name": "OwnableInvalidOwner",
      "type": "error"
    },
    {
      "inputs": [
        {
          "internalType": "address",
          "name": "account",
          "type": "address"
        }
      ],
      "name": "OwnableUnauthorizedAccount",
      "type": "error"
    },
    {
      "inputs": [],
      "name": "ReentrancyGuardReentrantCall",
      "type": "error"
    },
    {
      "inputs": [
        {
          "internalType": "address",
          "name": "token",
          "type": "address"
        }
      ],
      "name": "SafeERC20FailedOperation",
      "type": "error"
    },
    {
      "anonymous": false,
      "inputs": [
        {
          "indexed": true,
          "internalType": "address",
          "name": "owner",
          "type": "address"
        },
        {
          "indexed": true,
          "internalType": "address",
          "name": "spender",
          "type": "address"
        },
        {
          "indexed": false,
          "internalType": "uint256",
          "name": "value",
          "type": "uint256"
        }
      ],
      "name": "Approval",
      "type": "event"
    },
    {
      "anonymous": false,
      "inputs": [
        {
          "indexed": false,
          "internalType": "address",
          "name": "user",
          "type": "address"
        },
        {
          "indexed": false,
          "internalType": "uint256",
          "name": "amount",
          "type": "uint256"
        },
        {
          "indexed": false,
          "internalType": "uint256",
          "name": "total",
          "type": "uint256"
        }
      ],
      "name": "DepositsIncremented",
      "type": "event"
    },
    {
      "anonymous": false,
      "inputs": [
        {
          "indexed": true,
          "internalType": "address",
          "name": "previousOwner",
          "type": "address"
        },
        {
          "indexed": true,
          "internalType": "address",
          "name": "newOwner",
          "type": "address"
        }
      ],
      "name": "OwnershipTransferred",
      "type": "event"
    },
    {
      "anonymous": false,
      "inputs": [
        {
          "indexed": false,
          "internalType": "address",
          "name": "user",
          "type": "address"
        }
      ],
      "name": "TermsAccepted",
      "type": "event"
    },
    {
      "anonymous": false,
      "inputs": [
        {
          "indexed": true,
          "internalType": "address",
          "name": "from",
          "type": "address"
        },
        {
          "indexed": true,
          "internalType": "address",
          "name": "to",
          "type": "address"
        },
        {
          "indexed": false,
          "internalType": "uint256",
          "name": "value",
          "type": "uint256"
        }
      ],
      "name": "Transfer",
      "type": "event"
    },
    {
      "anonymous": false,
      "inputs": [
        {
          "indexed": false,
          "internalType": "uint256",
          "name": "newTvlCap",
          "type": "uint256"
        }
      ],
      "name": "TvlCapUpdated",
      "type": "event"
    },
    {
      "anonymous": false,
      "inputs": [
        {
          "indexed": false,
          "internalType": "address",
          "name": "user",
          "type": "address"
        },
        {
          "indexed": false,
          "internalType": "uint256",
          "name": "amount",
          "type": "uint256"
        },
        {
          "indexed": false,
          "internalType": "uint256",
          "name": "total",
          "type": "uint256"
        }
      ],
      "name": "WithdrawalsIncremented",
      "type": "event"
    },
    {
      "inputs": [],
      "name": "PERCENT_DIVISOR",
      "outputs": [
        {
          "internalType": "uint256",
          "name": "",
          "type": "uint256"
        }
      ],
      "stateMutability": "view",
      "type": "function"
    },
    {
      "inputs": [
        {
          "internalType": "address",
          "name": "owner",
          "type": "address"
        },
        {
          "internalType": "address",
          "name": "spender",
          "type": "address"
        }
      ],
      "name": "allowance",
      "outputs": [
        {
          "internalType": "uint256",
          "name": "",
          "type": "uint256"
        }
      ],
      "stateMutability": "view",
      "type": "function"
    },
    {
      "inputs": [
        {
          "internalType": "address",
          "name": "spender",
          "type": "address"
        },
        {
          "internalType": "uint256",
          "name": "value",
          "type": "uint256"
        }
      ],
      "name": "approve",
      "outputs": [
        {
          "internalType": "bool",
          "name": "",
          "type": "bool"
        }
      ],
      "stateMutability": "nonpayable",
      "type": "function"
    },
    {
      "inputs": [],
      "name": "available",
      "outputs": [
        {
          "internalType": "uint256",
          "name": "",
          "type": "uint256"
        }
      ],
      "stateMutability": "view",
      "type": "function"
    },
    {
      "inputs": [],
      "name": "balance",
      "outputs": [
        {
          "internalType": "uint256",
          "name": "",
          "type": "uint256"
        }
      ],
      "stateMutability": "view",
      "type": "function"
    },
    {
      "inputs": [
        {
          "internalType": "address",
          "name": "account",
          "type": "address"
        }
      ],
      "name": "balanceOf",
      "outputs": [
        {
          "internalType": "uint256",
          "name": "",
          "type": "uint256"
        }
      ],
      "stateMutability": "view",
      "type": "function"
    },
    {
      "inputs": [],
      "name": "constructionTime",
      "outputs": [
        {
          "internalType": "uint256",
          "name": "",
          "type": "uint256"
        }
      ],
      "stateMutability": "view",
      "type": "function"
    },
    {
      "inputs": [
        {
          "internalType": "address",
          "name": "",
          "type": "address"
        }
      ],
      "name": "cumulativeDeposits",
      "outputs": [
        {
          "internalType": "uint256",
          "name": "",
          "type": "uint256"
        }
      ],
      "stateMutability": "view",
      "type": "function"
    },
    {
      "inputs": [
        {
          "internalType": "address",
          "name": "",
          "type": "address"
        }
      ],
      "name": "cumulativeWithdrawals",
      "outputs": [
        {
          "internalType": "uint256",
          "name": "",
          "type": "uint256"
        }
      ],
      "stateMutability": "view",
      "type": "function"
    },
    {
      "inputs": [],
      "name": "decimals",
      "outputs": [
        {
          "internalType": "uint8",
          "name": "",
          "type": "uint8"
        }
      ],
      "stateMutability": "pure",
      "type": "function"
    },
    {
      "inputs": [
        {
          "internalType": "uint256",
          "name": "_amount",
          "type": "uint256"
        }
      ],
      "name": "deposit",
      "outputs": [],
      "stateMutability": "nonpayable",
      "type": "function"
    },
    {
      "inputs": [],
      "name": "depositAll",
      "outputs": [],
      "stateMutability": "nonpayable",
      "type": "function"
    },
    {
      "inputs": [],
      "name": "depositFee",
      "outputs": [
        {
          "internalType": "uint256",
          "name": "",
          "type": "uint256"
        }
      ],
      "stateMutability": "view",
      "type": "function"
    },
    {
      "inputs": [],
      "name": "earn",
      "outputs": [],
      "stateMutability": "nonpayable",
      "type": "function"
    },
    {
      "inputs": [],
      "name": "getPricePerFullShare",
      "outputs": [
        {
          "internalType": "uint256",
          "name": "",
          "type": "uint256"
        }
      ],
      "stateMutability": "view",
      "type": "function"
    },
    {
      "inputs": [
        {
          "internalType": "address",
          "name": "_token",
          "type": "address"
        }
      ],
      "name": "inCaseTokensGetStuck",
      "outputs": [],
      "stateMutability": "nonpayable",
      "type": "function"
    },
    {
      "inputs": [
        {
          "internalType": "address",
          "name": "_strategy",
          "type": "address"
        }
      ],
      "name": "initialize",
      "outputs": [
        {
          "internalType": "bool",
          "name": "",
          "type": "bool"
        }
      ],
      "stateMutability": "nonpayable",
      "type": "function"
    },
    {
      "inputs": [],
      "name": "initialized",
      "outputs": [
        {
          "internalType": "bool",
          "name": "",
          "type": "bool"
        }
      ],
      "stateMutability": "view",
      "type": "function"
    },
    {
      "inputs": [],
      "name": "name",
      "outputs": [
        {
          "internalType": "string",
          "name": "",
          "type": "string"
        }
      ],
      "stateMutability": "view",
      "type": "function"
    },
    {
      "inputs": [],
      "name": "owner",
      "outputs": [
        {
          "internalType": "address",
          "name": "",
          "type": "address"
        }
      ],
      "stateMutability": "view",
      "type": "function"
    },
    {
      "inputs": [],
      "name": "removeTvlCap",
      "outputs": [],
      "stateMutability": "nonpayable",
      "type": "function"
    },
    {
      "inputs": [],
      "name": "renounceOwnership",
      "outputs": [],
      "stateMutability": "nonpayable",
      "type": "function"
    },
    {
      "inputs": [],
      "name": "strategy",
      "outputs": [
        {
          "internalType": "address",
          "name": "",
          "type": "address"
        }
      ],
      "stateMutability": "view",
      "type": "function"
    },
    {
      "inputs": [],
      "name": "symbol",
      "outputs": [
        {
          "internalType": "string",
          "name": "",
          "type": "string"
        }
      ],
      "stateMutability": "view",
      "type": "function"
    },
    {
      "inputs": [],
      "name": "token",
      "outputs": [
        {
          "internalType": "contract IERC20",
          "name": "",
          "type": "address"
        }
      ],
      "stateMutability": "view",
      "type": "function"
    },
    {
      "inputs": [],
      "name": "totalSupply",
      "outputs": [
        {
          "internalType": "uint256",
          "name": "",
          "type": "uint256"
        }
      ],
      "stateMutability": "view",
      "type": "function"
    },
    {
      "inputs": [
        {
          "internalType": "address",
          "name": "to",
          "type": "address"
        },
        {
          "internalType": "uint256",
          "name": "value",
          "type": "uint256"
        }
      ],
      "name": "transfer",
      "outputs": [
        {
          "internalType": "bool",
          "name": "",
          "type": "bool"
        }
      ],
      "stateMutability": "nonpayable",
      "type": "function"
    },
    {
      "inputs": [
        {
          "internalType": "address",
          "name": "from",
          "type": "address"
        },
        {
          "internalType": "address",
          "name": "to",
          "type": "address"
        },
        {
          "internalType": "uint256",
          "name": "value",
          "type": "uint256"
        }
      ],
      "name": "transferFrom",
      "outputs": [
        {
          "internalType": "bool",
          "name": "",
          "type": "bool"
        }
      ],
      "stateMutability": "nonpayable",
      "type": "function"
    },
    {
      "inputs": [
        {
          "internalType": "address",
          "name": "newOwner",
          "type": "address"
        }
      ],
      "name": "transferOwnership",
      "outputs": [],
      "stateMutability": "nonpayable",
      "type": "function"
    },
    {
      "inputs": [],
      "name": "tvlCap",
      "outputs": [
        {
          "internalType": "uint256",
          "name": "",
          "type": "uint256"
        }
      ],
      "stateMutability": "view",
      "type": "function"
    },
    {
      "inputs": [
        {
          "internalType": "uint256",
          "name": "fee",
          "type": "uint256"
        }
      ],
      "name": "updateDepositFee",
      "outputs": [],
      "stateMutability": "nonpayable",
      "type": "function"
    },
    {
      "inputs": [
        {
          "internalType": "uint256",
          "name": "_newTvlCap",
          "type": "uint256"
        }
      ],
      "name": "updateTvlCap",
      "outputs": [],
      "stateMutability": "nonpayable",
      "type": "function"
    },
    {
      "inputs": [
        {
          "internalType": "uint256",
          "name": "_shares",
          "type": "uint256"
        }
      ],
      "name": "withdraw",
      "outputs": [],
      "stateMutability": "nonpayable",
      "type": "function"
    },
    {
      "inputs": [],
      "name": "withdrawAll",
      "outputs": [],
      "stateMutability": "nonpayable",
      "type": "function"
    }
  ],
  "bytecode": "0x60806040526000600a60006101000a81548160ff0219169083151502179055503480156200002c57600080fd5b50604051620035d4380380620035d4833981810160405281019062000052919062000464565b33848481600390816200006691906200076b565b5080600490816200007891906200076b565b505050600073ffffffffffffffffffffffffffffffffffffffff168173ffffffffffffffffffffffffffffffffffffffff1603620000f05760006040517f1e4fbdf7000000000000000000000000000000000000000000000000000000008152600401620000e7919062000863565b60405180910390fd5b62000101816200016b60201b60201c565b50600160068190555084600c60006101000a81548173ffffffffffffffffffffffffffffffffffffffff021916908373ffffffffffffffffffffffffffffffffffffffff16021790555042600b819055508160088190555080600981905550505050505062000880565b6000600560009054906101000a900473ffffffffffffffffffffffffffffffffffffffff16905081600560006101000a81548173ffffffffffffffffffffffffffffffffffffffff021916908373ffffffffffffffffffffffffffffffffffffffff1602179055508173ffffffffffffffffffffffffffffffffffffffff168173ffffffffffffffffffffffffffffffffffffffff167f8be0079c531659141344cd1fd0a4f28419497f9722a3daafe3b4186f6b6457e060405160405180910390a35050565b6000604051905090565b600080fd5b600080fd5b600073ffffffffffffffffffffffffffffffffffffffff82169050919050565b6000620002728262000245565b9050919050565b620002848162000265565b81146200029057600080fd5b50565b600081519050620002a48162000279565b92915050565b600080fd5b600080fd5b6000601f19601f8301169050919050565b7f4e487b7100000000000000000000000000000000000000000000000000000000600052604160045260246000fd5b620002ff82620002b4565b810181811067ffffffffffffffff82111715620003215762000320620002c5565b5b80604052505050565b60006200033662000231565b9050620003448282620002f4565b919050565b600067ffffffffffffffff821115620003675762000366620002c5565b5b6200037282620002b4565b9050602081019050919050565b60005b838110156200039f57808201518184015260208101905062000382565b60008484015250505050565b6000620003c2620003bc8462000349565b6200032a565b905082815260208101848484011115620003e157620003e0620002af565b5b620003ee8482856200037f565b509392505050565b600082601f8301126200040e576200040d620002aa565b5b815162000420848260208601620003ab565b91505092915050565b6000819050919050565b6200043e8162000429565b81146200044a57600080fd5b50565b6000815190506200045e8162000433565b92915050565b600080600080600060a086880312156200048357620004826200023b565b5b6000620004938882890162000293565b955050602086015167ffffffffffffffff811115620004b757620004b662000240565b5b620004c588828901620003f6565b945050604086015167ffffffffffffffff811115620004e957620004e862000240565b5b620004f788828901620003f6565b93505060606200050a888289016200044d565b92505060806200051d888289016200044d565b9150509295509295909350565b600081519050919050565b7f4e487b7100000000000000000000000000000000000000000000000000000000600052602260045260246000fd5b600060028204905060018216806200057d57607f821691505b60208210810362000593576200059262000535565b5b50919050565b60008190508160005260206000209050919050565b60006020601f8301049050919050565b600082821b905092915050565b600060088302620005fd7fffffffffffffffffffffffffffffffffffffffffffffffffffffffffffffffff82620005be565b620006098683620005be565b95508019841693508086168417925050509392505050565b6000819050919050565b60006200064c62000646620006408462000429565b62000621565b62000429565b9050919050565b6000819050919050565b62000668836200062b565b62000680620006778262000653565b848454620005cb565b825550505050565b600090565b6200069762000688565b620006a48184846200065d565b505050565b5b81811015620006cc57620006c06000826200068d565b600181019050620006aa565b5050565b601f8211156200071b57620006e58162000599565b620006f084620005ae565b8101602085101562000700578190505b620007186200070f85620005ae565b830182620006a9565b50505b505050565b600082821c905092915050565b6000620007406000198460080262000720565b1980831691505092915050565b60006200075b83836200072d565b9150826002028217905092915050565b62000776826200052a565b67ffffffffffffffff811115620007925762000791620002c5565b5b6200079e825462000564565b620007ab828285620006d0565b600060209050601f831160018114620007e35760008415620007ce578287015190505b620007da85826200074d565b8655506200084a565b601f198416620007f38662000599565b60005b828110156200081d57848901518255600182019150602085019450602081019050620007f6565b868310156200083d578489015162000839601f8916826200072d565b8355505b6001600288020188555050505b505050505050565b6200085d8162000265565b82525050565b60006020820190506200087a600083018462000852565b92915050565b612d4480620008906000396000f3fe608060405234801561001057600080fd5b50600436106102055760003560e01c8063853828b61161011a578063b6b55f25116100ad578063de5f62681161007c578063de5f6268146105a8578063def68a9c146105b2578063f06c5610146105ce578063f2fde38b146105ec578063fc0c546a1461060857610205565b8063b6b55f2514610522578063c4d66de81461053e578063d389800f1461056e578063dd62ed3e1461057857610205565b8063a8c62e76116100e9578063a8c62e7614610486578063a9059cbb146104a4578063b3ca3188146104d4578063b69ef8a81461050457610205565b8063853828b6146104105780638da5cb5b1461041a57806395d89b4114610438578063a6c8220e1461045657610205565b80632e1a7d4d1161019d57806348a0d7541161016c57806348a0d7541461037c57806367a527931461039a57806370a08231146103b8578063715018a6146103e857806377c7b8fc146103f257610205565b80632e1a7d4d14610306578063313ce567146103225780633f23fa1a146103405780634870dd9a1461035e57610205565b8063158ef93e116101d9578063158ef93e1461029057806318160ddd146102ae57806323b872dd146102cc57806329b9d694146102fc57610205565b8062272d811461020a578063017def571461022657806306fdde0314610242578063095ea7b314610260575b600080fd5b610224600480360381019061021f919061242b565b610626565b005b610240600480360381019061023b919061242b565b610671565b005b61024a610683565b60405161025791906124e8565b60405180910390f35b61027a60048036038101906102759190612568565b610715565b60405161028791906125c3565b60405180910390f35b610298610738565b6040516102a591906125c3565b60405180910390f35b6102b661074b565b6040516102c391906125ed565b60405180910390f35b6102e660048036038101906102e19190612608565b610755565b6040516102f391906125c3565b60405180910390f35b610304610784565b005b610320600480360381019061031b919061242b565b6107b7565b005b61032a610aa9565b6040516103379190612677565b60405180910390f35b610348610ab2565b60405161035591906125ed565b60405180910390f35b610366610ab8565b60405161037391906125ed565b60405180910390f35b610384610abe565b60405161039191906125ed565b60405180910390f35b6103a2610b61565b6040516103af91906125ed565b60405180910390f35b6103d260048036038101906103cd9190612692565b610b67565b6040516103df91906125ed565b60405180910390f35b6103f0610baf565b005b6103fa610bc3565b60405161040791906125ed565b60405180910390f35b610418610c14565b005b610422610c27565b60405161042f91906126ce565b60405180910390f35b610440610c51565b60405161044d91906124e8565b60405180910390f35b610470600480360381019061046b9190612692565b610ce3565b60405161047d91906125ed565b60405180910390f35b61048e610cfb565b60405161049b91906126ce565b60405180910390f35b6104be60048036038101906104b99190612568565b610d21565b6040516104cb91906125c3565b60405180910390f35b6104ee60048036038101906104e99190612692565b610d44565b6040516104fb91906125ed565b60405180910390f35b61050c610d5c565b60405161051991906125ed565b60405180910390f35b61053c6004803603810190610537919061242b565b610e9a565b005b61055860048036038101906105539190612692565b61116f565b60405161056591906125c3565b60405180910390f35b610576611280565b005b610592600480360381019061058d91906126e9565b611380565b60405161059f91906125ed565b60405180910390f35b6105b0611407565b005b6105cc60048036038101906105c79190612692565b6114ad565b005b6105d66115f2565b6040516105e391906125ed565b60405180910390f35b61060660048036038101906106019190612692565b6115f8565b005b61061061167e565b60405161061d9190612788565b60405180910390f35b61062e6116a4565b806009819055507f2923cecec41b7140eaf657a035af4abb23ed61d16b1fc20a986838eb3ad99bd060095460405161066691906125ed565b60405180910390a150565b6106796116a4565b8060088190555050565b606060038054610692906127d2565b80601f01602080910402602001604051908101604052809291908181526020018280546106be906127d2565b801561070b5780601f106106e05761010080835404028352916020019161070b565b820191906000526020600020905b8154815290600101906020018083116106ee57829003601f168201915b5050505050905090565b60008061072061172b565b905061072d818585611733565b600191505092915050565b600a60009054906101000a900460ff1681565b6000600254905090565b60008061076061172b565b905061076d858285611745565b6107788585856117d9565b60019150509392505050565b61078c6116a4565b6107b57fffffffffffffffffffffffffffffffffffffffffffffffffffffffffffffffff610626565b565b6107bf6118cd565b60008111610802576040517f08c379a00000000000000000000000000000000000000000000000000000000081526004016107f99061284f565b60405180910390fd5b600061080c61074b565b82610815610d5c565b61081f919061289e565b610829919061290f565b90506108353383611913565b6000600c60009054906101000a900473ffffffffffffffffffffffffffffffffffffffff1673ffffffffffffffffffffffffffffffffffffffff166370a08231306040518263ffffffff1660e01b815260040161089291906126ce565b602060405180830381865afa1580156108af573d6000803e3d6000fd5b505050506040513d601f19601f820116820180604052508101906108d39190612955565b905081811015610a4557600081836108eb9190612982565b9050600760009054906101000a900473ffffffffffffffffffffffffffffffffffffffff1673ffffffffffffffffffffffffffffffffffffffff16632e1a7d4d826040518263ffffffff1660e01b815260040161094891906125ed565b600060405180830381600087803b15801561096257600080fd5b505af1158015610976573d6000803e3d6000fd5b505050506000600c60009054906101000a900473ffffffffffffffffffffffffffffffffffffffff1673ffffffffffffffffffffffffffffffffffffffff166370a08231306040518263ffffffff1660e01b81526004016109d791906126ce565b602060405180830381865afa1580156109f4573d6000803e3d6000fd5b505050506040513d601f19601f82011682018060405250810190610a189190612955565b905060008382610a289190612982565b905082811015610a41578084610a3e91906129b6565b94505b5050505b610a923383600c60009054906101000a900473ffffffffffffffffffffffffffffffffffffffff1673ffffffffffffffffffffffffffffffffffffffff166119959092919063ffffffff16565b610a9b82611a14565b505050610aa6611af3565b50565b60006008905090565b60095481565b61271081565b6000600c60009054906101000a900473ffffffffffffffffffffffffffffffffffffffff1673ffffffffffffffffffffffffffffffffffffffff166370a08231306040518263ffffffff1660e01b8152600401610b1b91906126ce565b602060405180830381865afa158015610b38573d6000803e3d6000fd5b505050506040513d601f19601f82011682018060405250810190610b5c9190612955565b905090565b60085481565b60008060008373ffffffffffffffffffffffffffffffffffffffff1673ffffffffffffffffffffffffffffffffffffffff168152602001908152602001600020549050919050565b610bb76116a4565b610bc16000611afd565b565b600080610bce61074b565b14610c0557610bdb61074b565b670de0b6b3a7640000610bec610d5c565b610bf6919061289e565b610c00919061290f565b610c0f565b670de0b6b3a76400005b905090565b610c25610c2033610b67565b6107b7565b565b6000600560009054906101000a900473ffffffffffffffffffffffffffffffffffffffff16905090565b606060048054610c60906127d2565b80601f0160208091040260200160405190810160405280929190818152602001828054610c8c906127d2565b8015610cd95780601f10610cae57610100808354040283529160200191610cd9565b820191906000526020600020905b815481529060010190602001808311610cbc57829003601f168201915b5050505050905090565b600e6020528060005260406000206000915090505481565b600760009054906101000a900473ffffffffffffffffffffffffffffffffffffffff1681565b600080610d2c61172b565b9050610d398185856117d9565b600191505092915050565b600d6020528060005260406000206000915090505481565b6000600760009054906101000a900473ffffffffffffffffffffffffffffffffffffffff1673ffffffffffffffffffffffffffffffffffffffff1663722713f76040518163ffffffff1660e01b8152600401602060405180830381865afa158015610dcb573d6000803e3d6000fd5b505050506040513d601f19601f82011682018060405250810190610def9190612955565b600c60009054906101000a900473ffffffffffffffffffffffffffffffffffffffff1673ffffffffffffffffffffffffffffffffffffffff166370a08231306040518263ffffffff1660e01b8152600401610e4a91906126ce565b602060405180830381865afa158015610e67573d6000803e3d6000fd5b505050506040513d601f19601f82011682018060405250810190610e8b9190612955565b610e9591906129b6565b905090565b610ea26118cd565b60008103610ee5576040517f08c379a0000000000000000000000000000000000000000000000000000000008152600401610edc9061284f565b60405180910390fd5b6000610eef610d5c565b90506009548282610f0091906129b6565b1115610f41576040517f08c379a0000000000000000000000000000000000000000000000000000000008152600401610f3890612a36565b60405180910390fd5b6000600c60009054906101000a900473ffffffffffffffffffffffffffffffffffffffff1673ffffffffffffffffffffffffffffffffffffffff166370a08231306040518263ffffffff1660e01b8152600401610f9e91906126ce565b602060405180830381865afa158015610fbb573d6000803e3d6000fd5b505050506040513d601f19601f82011682018060405250810190610fdf9190612955565b9050611030333085600c60009054906101000a900473ffffffffffffffffffffffffffffffffffffffff1673ffffffffffffffffffffffffffffffffffffffff16611bc3909392919063ffffffff16565b6000600c60009054906101000a900473ffffffffffffffffffffffffffffffffffffffff1673ffffffffffffffffffffffffffffffffffffffff166370a08231306040518263ffffffff1660e01b815260040161108d91906126ce565b602060405180830381865afa1580156110aa573d6000803e3d6000fd5b505050506040513d601f19601f820116820180604052508101906110ce9190612955565b905081816110dc9190612982565b935060006127106008546127106110f39190612982565b866110fe919061289e565b611108919061290f565b905060008061111561074b565b0361112257819050611143565b8461112b61074b565b83611136919061289e565b611140919061290f565b90505b61114d3382611c45565b611155611280565b61115e86611cc7565b50505050505061116c611af3565b50565b60006111796116a4565b600a60009054906101000a900460ff16156111c9576040517f08c379a00000000000000000000000000000000000000000000000000000000081526004016111c090612aa2565b60405180910390fd5b6104b0600b546111d991906129b6565b42111561121b576040517f08c379a000000000000000000000000000000000000000000000000000000000815260040161121290612b34565b60405180910390fd5b81600760006101000a81548173ffffffffffffffffffffffffffffffffffffffff021916908373ffffffffffffffffffffffffffffffffffffffff1602179055506001600a60006101000a81548160ff02191690831515021790555060019050919050565b600061128a610abe565b90506112fb600760009054906101000a900473ffffffffffffffffffffffffffffffffffffffff1682600c60009054906101000a900473ffffffffffffffffffffffffffffffffffffffff1673ffffffffffffffffffffffffffffffffffffffff166119959092919063ffffffff16565b600760009054906101000a900473ffffffffffffffffffffffffffffffffffffffff1673ffffffffffffffffffffffffffffffffffffffff1663d0e30db06040518163ffffffff1660e01b8152600401600060405180830381600087803b15801561136557600080fd5b505af1158015611379573d6000803e3d6000fd5b5050505050565b6000600160008473ffffffffffffffffffffffffffffffffffffffff1673ffffffffffffffffffffffffffffffffffffffff16815260200190815260200160002060008373ffffffffffffffffffffffffffffffffffffffff1673ffffffffffffffffffffffffffffffffffffffff16815260200190815260200160002054905092915050565b6114ab600c60009054906101000a900473ffffffffffffffffffffffffffffffffffffffff1673ffffffffffffffffffffffffffffffffffffffff166370a08231336040518263ffffffff1660e01b815260040161146591906126ce565b602060405180830381865afa158015611482573d6000803e3d6000fd5b505050506040513d601f19601f820116820180604052508101906114a69190612955565b610e9a565b565b6114b56116a4565b600c60009054906101000a900473ffffffffffffffffffffffffffffffffffffffff1673ffffffffffffffffffffffffffffffffffffffff168173ffffffffffffffffffffffffffffffffffffffff1603611545576040517f08c379a000000000000000000000000000000000000000000000000000000000815260040161153c90612ba0565b60405180910390fd5b60008173ffffffffffffffffffffffffffffffffffffffff166370a08231306040518263ffffffff1660e01b815260040161158091906126ce565b602060405180830381865afa15801561159d573d6000803e3d6000fd5b505050506040513d601f19601f820116820180604052508101906115c19190612955565b90506115ee33828473ffffffffffffffffffffffffffffffffffffffff166119959092919063ffffffff16565b5050565b600b5481565b6116006116a4565b600073ffffffffffffffffffffffffffffffffffffffff168173ffffffffffffffffffffffffffffffffffffffff16036116725760006040517f1e4fbdf700000000000000000000000000000000000000000000000000000000815260040161166991906126ce565b60405180910390fd5b61167b81611afd565b50565b600c60009054906101000a900473ffffffffffffffffffffffffffffffffffffffff1681565b6116ac61172b565b73ffffffffffffffffffffffffffffffffffffffff166116ca610c27565b73ffffffffffffffffffffffffffffffffffffffff1614611729576116ed61172b565b6040517f118cdaa700000000000000000000000000000000000000000000000000000000815260040161172091906126ce565b60405180910390fd5b565b600033905090565b6117408383836001611da6565b505050565b60006117518484611380565b90507fffffffffffffffffffffffffffffffffffffffffffffffffffffffffffffffff81146117d357818110156117c3578281836040517ffb8f41b20000000000000000000000000000000000000000000000000000000081526004016117ba93929190612bc0565b60405180910390fd5b6117d284848484036000611da6565b5b50505050565b600073ffffffffffffffffffffffffffffffffffffffff168373ffffffffffffffffffffffffffffffffffffffff160361184b5760006040517f96c6fd1e00000000000000000000000000000000000000000000000000000000815260040161184291906126ce565b60405180910390fd5b600073ffffffffffffffffffffffffffffffffffffffff168273ffffffffffffffffffffffffffffffffffffffff16036118bd5760006040517fec442f050000000000000000000000000000000000000000000000000000000081526004016118b491906126ce565b60405180910390fd5b6118c8838383611f7d565b505050565b600260065403611909576040517f3ee5aeb500000000000000000000000000000000000000000000000000000000815260040160405180910390fd5b6002600681905550565b600073ffffffffffffffffffffffffffffffffffffffff168273ffffffffffffffffffffffffffffffffffffffff16036119855760006040517f96c6fd1e00000000000000000000000000000000000000000000000000000000815260040161197c91906126ce565b60405180910390fd5b61199182600083611f7d565b5050565b611a0f838473ffffffffffffffffffffffffffffffffffffffff1663a9059cbb85856040516024016119c8929190612bf7565b604051602081830303815290604052915060e01b6020820180517bffffffffffffffffffffffffffffffffffffffffffffffffffffffff83818316178352505050506121a2565b505050565b600080600e60003273ffffffffffffffffffffffffffffffffffffffff1673ffffffffffffffffffffffffffffffffffffffff16815260200190815260200160002054905060008382611a6791906129b6565b905080600e60003273ffffffffffffffffffffffffffffffffffffffff1673ffffffffffffffffffffffffffffffffffffffff168152602001908152602001600020819055507f9141e77ca2893646d48087b1b095075541605e9b87ca091e2057b651b1e62af2328583604051611ae093929190612bc0565b60405180910390a1600192505050919050565b6001600681905550565b6000600560009054906101000a900473ffffffffffffffffffffffffffffffffffffffff16905081600560006101000a81548173ffffffffffffffffffffffffffffffffffffffff021916908373ffffffffffffffffffffffffffffffffffffffff1602179055508173ffffffffffffffffffffffffffffffffffffffff168173ffffffffffffffffffffffffffffffffffffffff167f8be0079c531659141344cd1fd0a4f28419497f9722a3daafe3b4186f6b6457e060405160405180910390a35050565b611c3f848573ffffffffffffffffffffffffffffffffffffffff166323b872dd868686604051602401611bf893929190612c20565b604051602081830303815290604052915060e01b6020820180517bffffffffffffffffffffffffffffffffffffffffffffffffffffffff83818316178352505050506121a2565b50505050565b600073ffffffffffffffffffffffffffffffffffffffff168273ffffffffffffffffffffffffffffffffffffffff1603611cb75760006040517fec442f05000000000000000000000000000000000000000000000000000000008152600401611cae91906126ce565b60405180910390fd5b611cc360008383611f7d565b5050565b600080600d60003273ffffffffffffffffffffffffffffffffffffffff1673ffffffffffffffffffffffffffffffffffffffff16815260200190815260200160002054905060008382611d1a91906129b6565b905080600d60003273ffffffffffffffffffffffffffffffffffffffff1673ffffffffffffffffffffffffffffffffffffffff168152602001908152602001600020819055507f06a0895c1a837cd12ac50bcba0b79f680b66b790598e25e296d9e998e1b75209328583604051611d9393929190612bc0565b60405180910390a1600192505050919050565b600073ffffffffffffffffffffffffffffffffffffffff168473ffffffffffffffffffffffffffffffffffffffff1603611e185760006040517fe602df05000000000000000000000000000000000000000000000000000000008152600401611e0f91906126ce565b60405180910390fd5b600073ffffffffffffffffffffffffffffffffffffffff168373ffffffffffffffffffffffffffffffffffffffff1603611e8a5760006040517f94280d62000000000000000000000000000000000000000000000000000000008152600401611e8191906126ce565b60405180910390fd5b81600160008673ffffffffffffffffffffffffffffffffffffffff1673ffffffffffffffffffffffffffffffffffffffff16815260200190815260200160002060008573ffffffffffffffffffffffffffffffffffffffff1673ffffffffffffffffffffffffffffffffffffffff168152602001908152602001600020819055508015611f77578273ffffffffffffffffffffffffffffffffffffffff168473ffffffffffffffffffffffffffffffffffffffff167f8c5be1e5ebec7d5bd14f71427d1e84f3dd0314c0f7b2291e5b200ac8c7c3b92584604051611f6e91906125ed565b60405180910390a35b50505050565b600073ffffffffffffffffffffffffffffffffffffffff168373ffffffffffffffffffffffffffffffffffffffff1603611fcf578060026000828254611fc391906129b6565b925050819055506120a2565b60008060008573ffffffffffffffffffffffffffffffffffffffff1673ffffffffffffffffffffffffffffffffffffffff1681526020019081526020016000205490508181101561205b578381836040517fe450d38c00000000000000000000000000000000000000000000000000000000815260040161205293929190612bc0565b60405180910390fd5b8181036000808673ffffffffffffffffffffffffffffffffffffffff1673ffffffffffffffffffffffffffffffffffffffff16815260200190815260200160002081905550505b600073ffffffffffffffffffffffffffffffffffffffff168273ffffffffffffffffffffffffffffffffffffffff16036120eb5780600260008282540392505081905550612138565b806000808473ffffffffffffffffffffffffffffffffffffffff1673ffffffffffffffffffffffffffffffffffffffff168152602001908152602001600020600082825401925050819055505b8173ffffffffffffffffffffffffffffffffffffffff168373ffffffffffffffffffffffffffffffffffffffff167fddf252ad1be2c89b69c2b068fc378daa952ba7f163c4a11628f55a4df523b3ef8360405161219591906125ed565b60405180910390a3505050565b60006121cd828473ffffffffffffffffffffffffffffffffffffffff1661223990919063ffffffff16565b905060008151141580156121f25750808060200190518101906121f09190612c83565b155b1561223457826040517f5274afe700000000000000000000000000000000000000000000000000000000815260040161222b91906126ce565b60405180910390fd5b505050565b60606122478383600061224f565b905092915050565b60608147101561229657306040517fcd78605900000000000000000000000000000000000000000000000000000000815260040161228d91906126ce565b60405180910390fd5b6000808573ffffffffffffffffffffffffffffffffffffffff1684866040516122bf9190612cf7565b60006040518083038185875af1925050503d80600081146122fc576040519150601f19603f3d011682016040523d82523d6000602084013e612301565b606091505b509150915061231186838361231c565b925050509392505050565b6060826123315761232c826123ab565b6123a3565b60008251148015612359575060008473ffffffffffffffffffffffffffffffffffffffff163b145b1561239b57836040517f9996b31500000000000000000000000000000000000000000000000000000000815260040161239291906126ce565b60405180910390fd5b8190506123a4565b5b9392505050565b6000815111156123be5780518082602001fd5b6040517f1425ea4200000000000000000000000000000000000000000000000000000000815260040160405180910390fd5b600080fd5b6000819050919050565b612408816123f5565b811461241357600080fd5b50565b600081359050612425816123ff565b92915050565b600060208284031215612441576124406123f0565b5b600061244f84828501612416565b91505092915050565b600081519050919050565b600082825260208201905092915050565b60005b83811015612492578082015181840152602081019050612477565b60008484015250505050565b6000601f19601f8301169050919050565b60006124ba82612458565b6124c48185612463565b93506124d4818560208601612474565b6124dd8161249e565b840191505092915050565b6000602082019050818103600083015261250281846124af565b905092915050565b600073ffffffffffffffffffffffffffffffffffffffff82169050919050565b60006125358261250a565b9050919050565b6125458161252a565b811461255057600080fd5b50565b6000813590506125628161253c565b92915050565b6000806040838503121561257f5761257e6123f0565b5b600061258d85828601612553565b925050602061259e85828601612416565b9150509250929050565b60008115159050919050565b6125bd816125a8565b82525050565b60006020820190506125d860008301846125b4565b92915050565b6125e7816123f5565b82525050565b600060208201905061260260008301846125de565b92915050565b600080600060608486031215612621576126206123f0565b5b600061262f86828701612553565b935050602061264086828701612553565b925050604061265186828701612416565b9150509250925092565b600060ff82169050919050565b6126718161265b565b82525050565b600060208201905061268c6000830184612668565b92915050565b6000602082840312156126a8576126a76123f0565b5b60006126b684828501612553565b91505092915050565b6126c88161252a565b82525050565b60006020820190506126e360008301846126bf565b92915050565b60008060408385031215612700576126ff6123f0565b5b600061270e85828601612553565b925050602061271f85828601612553565b9150509250929050565b6000819050919050565b600061274e6127496127448461250a565b612729565b61250a565b9050919050565b600061276082612733565b9050919050565b600061277282612755565b9050919050565b61278281612767565b82525050565b600060208201905061279d6000830184612779565b92915050565b7f4e487b7100000000000000000000000000000000000000000000000000000000600052602260045260246000fd5b600060028204905060018216806127ea57607f821691505b6020821081036127fd576127fc6127a3565b5b50919050565b7f706c656173652070726f7669646520616d6f756e740000000000000000000000600082015250565b6000612839601583612463565b915061284482612803565b602082019050919050565b600060208201905081810360008301526128688161282c565b9050919050565b7f4e487b7100000000000000000000000000000000000000000000000000000000600052601160045260246000fd5b60006128a9826123f5565b91506128b4836123f5565b92508282026128c2816123f5565b915082820484148315176128d9576128d861286f565b5b5092915050565b7f4e487b7100000000000000000000000000000000000000000000000000000000600052601260045260246000fd5b600061291a826123f5565b9150612925836123f5565b925082612935576129346128e0565b5b828204905092915050565b60008151905061294f816123ff565b92915050565b60006020828403121561296b5761296a6123f0565b5b600061297984828501612940565b91505092915050565b600061298d826123f5565b9150612998836123f5565b92508282039050818111156129b0576129af61286f565b5b92915050565b60006129c1826123f5565b91506129cc836123f5565b92508282019050808211156129e4576129e361286f565b5b92915050565b7f7661756c742069732066756c6c21000000000000000000000000000000000000600082015250565b6000612a20600e83612463565b9150612a2b826129ea565b602082019050919050565b60006020820190508181036000830152612a4f81612a13565b9050919050565b7f436f6e747261637420697320616c726561647920696e697469616c697a65642e600082015250565b6000612a8c602083612463565b9150612a9782612a56565b602082019050919050565b60006020820190508181036000830152612abb81612a7f565b9050919050565b7f696e697469616c697a6174696f6e20706572696f64206f7665722c20746f6f2060008201527f6261642100000000000000000000000000000000000000000000000000000000602082015250565b6000612b1e602483612463565b9150612b2982612ac2565b604082019050919050565b60006020820190508181036000830152612b4d81612b11565b9050919050565b7f21746f6b656e0000000000000000000000000000000000000000000000000000600082015250565b6000612b8a600683612463565b9150612b9582612b54565b602082019050919050565b60006020820190508181036000830152612bb981612b7d565b9050919050565b6000606082019050612bd560008301866126bf565b612be260208301856125de565b612bef60408301846125de565b949350505050565b6000604082019050612c0c60008301856126bf565b612c1960208301846125de565b9392505050565b6000606082019050612c3560008301866126bf565b612c4260208301856126bf565b612c4f60408301846125de565b949350505050565b612c60816125a8565b8114612c6b57600080fd5b50565b600081519050612c7d81612c57565b92915050565b600060208284031215612c9957612c986123f0565b5b6000612ca784828501612c6e565b91505092915050565b600081519050919050565b600081905092915050565b6000612cd182612cb0565b612cdb8185612cbb565b9350612ceb818560208601612474565b80840191505092915050565b6000612d038284612cc6565b91508190509291505056fea26469706673582212203d0344bd36dae84170fb603e3a15cda1912460d6df1ce5b1266ca92e8fd8dfe564736f6c63430008140033",
  "linkReferences": {},
  "deployedLinkReferences": {}
}